:1000000012C02CC02BC02AC029C028C0B9C126C02C
:1000100025C024C023C022C021C020C01FC01EC0D4
:100020001DC01CC01BC011241FBECFE5D4E0DEBF25
:10003000CDBF10E0A0E6B0E0E2E6F7E002C0059038
:100040000D92A23CB107D9F720E0A2ECB0E001C0CC
:100050001D92A93CB207E1F702D081C3D1CFCF9363
:10006000DF931F92CDB7DEB778948FE187BB18BAC4
:1000700080ED97E015D00AE0102F198361E0CE01E2
:100080000196BAD0B4D02FE38DE093E021508040A8
:100090009040E1F700C00000165F1C3371F7ECCF11
:1000A0004F925F926F927F928F929F92AF92BF9288
:1000B000EF92FF921F93CF93DF93CDB7DEB72E97CA
:1000C0000FB6F894DEBF0FBECDBFB89AB99A2EE036
:1000D000E4EAF0E0DE01119601900D922A95E1F735
:1000E000009709F460C0BC0180E090E047D29B011A
:1000F000AC0160E070E080E89FE3A7D120E030E051
:1001000040E05EE3C9D24B015C017E0123E0E20ED8
:10011000F11C11E0F701819191917F01BC0180E018
:1001200090E02CD29B01AC0160E074E284E799E49A
:100130008CD19B01AC0160E070E080E89FE385D149
:100140009B01AC01C501B40180D1E7D12B013C0179
:10015000F2E04F1A5108610871082DEF42162FEF97
:10016000520661047104E8F01F5F173099F662309F
:10017000710581059105B8F061157105E1E08E0703
:10018000910588F4112379F01FBC28E02EBD2EB50F
:10019000122B1EBD7BBD6ABD89B7806189BFC19826
:1001A00002C0163049F72E960FB6F894DEBF0FBE88
:1001B000CDBFDF91CF911F91FF90EF90BF90AF9097
:1001C0009F908F907F906F905F904F9008951092C6
:1001D000C7001092C6001092C500C19A81E08093BA
:1001E000C4000895C198C0981092C40008958091E9
:1001F000C4008111FCCF0895EF92FF921F93CF931B
:10020000DF936C3108F0B5C0162F7C01C3E0C60F38
:10021000EEDF2FEF3FEF2C27022E2295207F2025A7
:10022000032E322F22952F70022626953227232760
:10023000220F220F220F2025A0E6B0E0EC2FF0E0E5
:10024000F595E795F595E795F595E795F595E79596
:10025000EE54FF4F808118968C931897CF70EC2F37
:10026000F0E0EE54FF4F808119968C93112309F42E
:100270003EC0E701ABE6B0E08FEF810F90E0019662
:100280008E0D9F1DAE01E9912E27022E2295207F13
:100290002025032E322F22952F70022626953227F5
:1002A0002327220F220F220F2025BD016150710943
:1002B000F0E0F595E795F595E795F595E795F595D2
:1002C000E795EE54FF4FF080FB01F082FA01408188
:1002D000E42FEF70F0E0EE54FF4F40814C93129604
:1002E000C817D90709F0CECF1F5F110F01C012E068
:1002F000F901E095F095C12FD0E0C859DF4FDF013B
:10030000B295A295AF70AB27BF70AB27AF70BB277C
:10031000AE54BF4F8C918883A1E0A10FB0E0A859E3
:10032000BF4FEF01CF70DD27CE54DF4F88818C9314
:10033000A2E0A10FB0E0A859BF4FEF01CD2FDD27FC
:10034000C295CF70CE54DF4F88818C93A3E0A10F6C
:10035000B0E0A859BF4FEF2FFF27EF70FF27EE54F3
:10036000FF4F80818C93145F1093C80030DF81E0D1
:1003700001C080E0DF91CF911F91FF90EF90089531
:100380001F920F920FB60F9211242F933F934F930A
:100390005F936F937F938F939F93AF93BF93EF93ED
:1003A000FF938091C4008823C9F18091C50091E03A
:1003B000980F9093C500811131C0E091C7008091E2
:1003C000C800E81758F00EDF8091C2009091C3007A
:1003D00001969093C3008093C20020C0F0E0E05AE1
:1003E000FF4F808190E02091C60031E0320F3093C2
:1003F000C60002C0959587952A95E2F780FD02C058
:10040000C09801C0C09A8091C600863038F0109222
:10041000C6008091C7008F5F8093C7008091C500A0
:10042000883010F01092C500FF91EF91BF91AF910D
:100430009F918F917F916F915F914F913F912F91FC
:100440000F900FBE0F901F9018950CD0EBC0E3D00B
:1004500040F0DAD030F021F45F3F19F0CCC05111F8
:1004600015C1CFC0F0D098F39923C9F35523B1F348
:10047000951B550BBB27AA2762177307840738F013
:100480009F5F5F4F220F331F441FAA1FA9F333D072
:100490000E2E3AF0E0E830D091505040E695001C26
:1004A000CAF729D0FE2F27D0660F771F881FBB1FE2
:1004B000261737074807AB07B0E809F0BB0B802DBC
:1004C000BF01FF2793585F4F2AF09E3F510568F008
:1004D00092C0DCC05F3FECF3983EDCF386957795E5
:1004E0006795B795F7959F5FC9F7880F911D96950A
:1004F000879597F90895E1E0660F771F881FBB1F66
:10050000621773078407BA0720F0621B730B840B12
:10051000BA0BEE1F88F7E095089504D06894B111E6
:10052000B5C0089598D088F09F5790F0B92F9927BB
:10053000B751A0F0D1F0660F771F881F991F1AF0EE
:10054000BA95C9F712C0B13081F09FD0B1E00895DB
:100550009CC0672F782F8827B85F39F0B93FCCF35C
:10056000869577956795B395D9F73EF490958095E4
:10057000709561957F4F8F4F9F4F0895E89409C004
:1005800097FB3EF490958095709561957F4F8F4FC6
:100590009F4F9923A9F0F92F96E9BB279395F695DC
:1005A000879577956795B795F111F8CFFAF4BB0F5A
:1005B00011F460FF1BC06F5F7F4F8F4F9F4F16C0BE
:1005C000882311F096E911C0772321F09EE8872F48
:1005D000762F05C0662371F096E8862F70E060E004
:1005E0002AF09A95660F771F881FDAF7880F96957D
:1005F000879597F9089597F99F6780E870E060E024
:1006000008959FEF80EC089500240A9416161706AB
:1006100018060906089500240A94121613061406F3
:1006200005060895092E0394000C11F4882352F056
:10063000BB0F40F4BF2B11F460FF04C06F5F7F4F0E
:100640008F4F9F4F089557FD9058440F551F59F0F5
:100650005F3F71F04795880F97FB991F61F09F3FAF
:1006600079F087950895121613061406551FF2CFD8
:100670004695F1DF08C0161617061806991FF1CF28
:1006800086957105610508940895E894BB2766274F
:100690007727CB0197F908950BD0C4CFB5DF28F0A9
:1006A000BADF18F0952309F0A6CFABCF1124EECF17
:1006B000CADFA0F3959FD1F3950F50E0551F629FBD
:1006C000F001729FBB27F00DB11D639FAA27F00DAB
:1006D000B11DAA1F649F6627B00DA11D661F829FD2
:1006E0002227B00DA11D621F739FB00DA11D621FB7
:1006F000839FA00D611D221F749F3327A00D611DD4
:10070000231F849F600D211D822F762F6A2F1124B5
:100710009F5750408AF0E1F088234AF0EE0FFF1F08
:10072000BB1F661F771F881F91505040A9F79E3F3F
:10073000510570F060CFAACF5F3FECF3983EDCF339
:10074000869577956795B795F795E7959F5FC1F77C
:10075000FE2B880F911D9695879597F90895F8942B
:02076000FFCFC9
:100762002A2A2A2A2A2A382C000000000000000027
:100772000000000000000000000000000000000077
:100782000000000000000000000000000000000067
:100792000000000000000000000000000000000057
:1007A20000000000000001000800400000010004F9
:1007B200050D0D0E131516191A1C232526292A2C90
:0207C2003234CF
:00000001FF
