:1000000042C064C490C407C463C062C087C760C0F4
:100010005FC0B6C45DC0FFC136C25AC059C058C027
:1000200057C056C055C0020000000000000000008C
:100030000304060000000000000000010204081094
:10004000204080010204081020010204081020044E
:10005000040404040404040202020202020303036F
:1000600003030300000000360033003000000000EE
:100070000038003500320000000000370034003145
:1000800000007102DB0211241FBECFE5D4E0DEBF09
:10009000CDBF11E0A0E6B0E0E4EAF3E102C00590D4
:1000A0000D92A830B107D9F721E0A8E0B1E001C076
:1000B0001D92A33FB207E1F710E0C3E4D0E003C014
:1000C0002197FE0155D9C134D107D1F780D268C933
:1000D00097CF61E08BE0D0D426E040EC52E160E0C5
:1000E00070E088E091E02ED166EB70E088E091E06E
:1000F000CFD28CE089D588E293E230D6E0D608955D
:10010000CF93DF93CDB7DEB76F970FB6F894DEBF0E
:100110000FBECDBF8EE18F8FDCD6BE01615E7F4FFB
:10012000CE010196DBD6882389F169EB70E0CE0120
:1001300001962DD9892B51F5BE016F5F7F4F88E065
:1001400091E0A6D2C6D6BE01615E7F4FCE01019678
:10015000C5D68823D9F0BE016F5F7F4F88E091E05C
:1001600097D261EC70E0CE01019611D9892B21F470
:1001700061E08BE0C0D40AC069EC70E0CE0101966A
:1001800006D9892B19F460E08BE0B5D46F960FB6D1
:10019000F894DEBF0FBECDBFDF91CF910895FC0173
:1001A000918D228D892F90E0805C9F4F821B910959
:1001B0008F7399270895FC01918D828D981731F0E6
:1001C000828DE80FF11D858D90E008958FEF9FEFF0
:1001D0000895FC01918D828D981761F0828DDF0169
:1001E000A80FB11D5D968C91928D9F5F9F73928F2A
:1001F00090E008958FEF9FEF089588E692E0892BB5
:1002000039F080E090E0892B19F062D18111F8DE9D
:100210000895FC01848DDF01A80FB11DA35ABF4FC3
:100220008C91248D30E02F5F3F4F2F733078332334
:1002300034F421503109206C3F6F2F5F3F4F248FE2
:10024000A689B7898C93A089B1898C9180648C939D
:10025000938D848D981306C00288F389E02D8081E8
:100260008F7D80830895CF93DF93EC01888D81117A
:100270000EC017C00FB607FC0CC0908195FF09C0D7
:10028000A889B9898C9185FF04C0CE01C2DFEA89B3
:10029000FB89908195FDEECFA889B9898C9186FF65
:1002A000E9CFDF91CF9108950F931F93CF93DF9301
:1002B000FC0181E0808F938D848D981321C0A089EB
:1002C000B1898C9185FD2EC01BC00FB607FC07C0FD
:1002D000E889F989808185FF02C0CE019ADF9C8D73
:1002E000091799F38B8DFE01E80FF11DE35AFF4FBB
:1002F00010830B8FEA89FB898081806280831BC019
:10030000238D30E02F5F3F4F2F733078332334F449
:1003100021503109206C3F6F2F5F3F4F162FEF01A7
:10032000022FDDCFA689B7896C930088F189E02D73
:1003300080818064808381E090E0DF91CF911F9184
:100340000F9108958F929F92AF92BF92FF920F9359
:100350001F93CF93DF93EC014A015B01F22EE889F2
:10036000F98982E080834115514E61057105A9F03C
:1003700060E079E08DE390E0A5019401D7D7890191
:100380009A010150110921093109369527951795D0
:100390000795011580E11807A0F0E889F989108216
:1003A00060E874E88EE190E0A5019401BFD7DA011E
:1003B000C9010197A109B109B695A79597958795A8
:1003C0008C01EC85FD851083EE85FF850083188EFA
:1003D0008F2D8068EC89FD898083EA89FB89808183
:1003E00080618083EA89FB89808188608083EA89D3
:1003F000FB89808180688083EA89FB8980818F7D89
:100400008083DF91CF911F910F91FF90BF90AF90AC
:100410009F908F9008951F920F920FB60F92112404
:100420002F938F939F93AF93BF93EF93FF93E0919D
:100430001801F0911901808182FD14C0E8E0F1E01B
:10044000A689B7892C91818D8F5F8F73928D8917C3
:1004500071F0DF01E18DF0E0E85FFE4F258F5996E6
:100460008C9305C0E0911E01F0911F018081FF91E6
:10047000EF91BF91AF919F918F912F910F900FBEF0
:100480000F901F9018951F920F920FB60F92112484
:100490002F933F934F935F936F937F938F939F938C
:1004A000AF93BF93EF93FF9388E091E0B2DEFF91AB
:1004B000EF91BF91AF919F918F917F916F915F91DC
:1004C0004F913F912F910F900FBE0F901F90189555
:1004D00088E091E064DE21E0892B09F420E0822F9E
:1004E0000895E8E0F1E01382128288EE93E0A0E044
:1004F000B0E084839583A683B78385ED90E09183F4
:10050000808380E490E09587848729E230E0378714
:1005100026872BE230E0318B208B2AE230E0338BD0
:10052000228B958B848B8CE290E0978B868B118E3F
:10053000128E138E148E08958F929F92AF92BF9257
:10054000CF92DF92EF92FF920F931F93CF93DF939F
:100550005C017B014C0182E0880E911C6501E5E0A5
:10056000CE0ED11C00E010E0F40161914F014AE091
:1005700050E0C7011DD1EC016EE2C70175D08C0FB0
:100580009D1F080F191F8C149D0471F74AE050E05D
:10059000F5016581C7010CD1800F911FDF91CF91CB
:1005A0001F910F91FF90EF90DF90CF90BF90AF9091
:1005B0009F908F900895E5EAF1E085EE90E09183B9
:1005C000808312821382148215820895089522D2A4
:1005D000FDDF7FDDCDEFD0E093DD2097E9F30DDE89
:1005E000FBCFCF92DF92EF92FF920F931F93CF93A7
:1005F000DF9341155105B1F08C01E62EF72EEA018B
:10060000C12CD12CD7016D917D01D801ED91FC91C8
:100610000190F081E02DC8010995C80ED91E2197DF
:1006200089F702C0C12CD12CC601DF91CF911F9157
:100630000F91FF90EF90DF90CF90089561157105B5
:1006400081F0FB0101900020E9F73197AF01461BD3
:10065000570BDC01ED91FC910280F381E02D0995AF
:10066000089580E090E00895DC01ED91FC91019007
:10067000F081E02D09950895DC01ED91FC91028057
:10068000F381E02D42E050E067EE70E009950895B7
:100690000F931F93CF93DF93EC01D0DF8C01CE013A
:1006A000EBDF800F911FDF91CF911F910F91089584
:1006B0004F925F926F927F929F92AF92BF92CF9232
:1006C000DF92EF92FF920F931F93CF93DF93CDB7FB
:1006D000DEB7A1970FB6F894DEBF0FBECDBF5C01A9
:1006E0006A017B01922E19A281E0821720F00F2E61
:1006F000FAE09F2EF02D8E010F5D1F4F492C512CDB
:10070000612C712CC701B601A30192010FD68C2D6B
:10071000929E80191124015011098A3010F4805DD5
:1007200001C0895CD8018C93C22ED32EE42EF52E05
:10073000C114D104E104F10429F70115110591F068
:10074000F80101900020E9F73197AF01401B510BF0
:10075000D501ED91FC910280F381E02DB801C50136
:10076000099502C080E090E0A1960FB6F894DEBF34
:100770000FBECDBFDF91CF911F910F91FF90EF90F2
:10078000DF90CF90BF90AF909F907F906F905F90E1
:100790004F9008952115310549F4DC01ED91FC914C
:1007A0000190F081E02D642F0995089581DF08956F
:1007B0009A01462F50E060E070E0ECDF0895813050
:1007C00031F018F0823039F0089519BE089589B7D4
:1007D0008F7E89BF089589B78F7789BF80E485BDF3
:1007E00085B5887F846085BD13BC0895CF93C82FDD
:1007F000809160008C1308C0E6E2F0E0E4918E2F57
:100800009FEF9093600001C08FEFD9DF60E08C2FE5
:1008100072D1CF9108951F920F920FB60F921124AB
:100820002F933F934F935F936F937F938F939F93F8
:10083000AF93BF93EF93FF938091AE019091AF017F
:10084000A091B001B091B101892B8A2B8B2B51F172
:100850008091AB01E091AC01F091AD0190818927CD
:1008600080838091AE019091AF01A091B001B091D1
:10087000B101181619061A061B06BCF48091AE01C8
:100880009091AF01A091B001B091B1010197A10980
:10089000B1098093AE019093AF01A093B001B093E2
:1008A000B10103C080916000A1DFFF91EF91BF9182
:1008B000AF919F918F917F916F915F914F913F91F8
:1008C0002F910F900FBE0F901F9018951F920F92AF
:1008D0000FB60F9211242F933F934F935F936F9313
:1008E0007F938F939F93AF93BF93EF93FF938091E9
:1008F000B2019091B301892B29F0E091B201F091FE
:10090000B3010995FF91EF91BF91AF919F918F91A5
:100910007F916F915F914F913F912F910F900FBEFB
:100920000F901F9018951F920F920FB60F921124DF
:100930002F933F934F935F936F937F938F939F93E7
:10094000AF93BF93EF93FF938091B4019091B50162
:10095000892B29F0E091B401F091B5010995FF913F
:10096000EF91BF91AF919F918F917F916F915F9127
:100970004F913F912F910F900FBE0F901F901895A0
:100980001F920F920FB60F9211242F933F938F93C4
:100990009F93AF93BF938091B7019091B801A091BD
:1009A000B901B091BA013091B60123E0230F2D3780
:1009B00020F40196A11DB11D05C026E8230F029663
:1009C000A11DB11D2093B6018093B7019093B8018A
:1009D000A093B901B093BA018091BB019091BC0181
:1009E000A091BD01B091BE010196A11DB11D8093E2
:1009F000BB019093BC01A093BD01B093BE01BF9118
:100A0000AF919F918F913F912F910F900FBE0F90BB
:100A10001F901895789483B7826083BF83B78160F5
:100A200083BF89B7816089BF1EBC8EB582608EBDD1
:100A30008EB581608EBD8FB581608FBD85B58460B8
:100A400085BD85B5806485BD329A319A309A379AD2
:100A50001AB80895843041F0863051F0833059F44B
:100A60008FB58F778FBD08958FB58F7D8FBD08951A
:100A700085B58F7D85BD0895CF93DF9390E0FC0110
:100A8000E55CFF4F2491FC01E15BFF4F84918823DB
:100A900079F190E0880F991FFC01E958FF4FA5916B
:100AA000B491FC01E359FF4FC591D49161110CC081
:100AB0009FB7F8948C91E22FE0958E238C93288138
:100AC000E223E8839FBF14C0623061F49FB7F894BB
:100AD0003C91822F809583238C93E881E22BE883DD
:100AE0009FBF06C08FB7F894EC91E22BEC938FBFB9
:100AF000DF91CF9108951F93CF93DF93282F30E09C
:100B0000F901E95DFF4F8491F901E55CFF4F149114
:100B1000F901E15BFF4FC491CC23C9F0D62F8111BD
:100B200099DFEC2FF0E0EE0FFF1FE359FF4FA59187
:100B3000B4918FB7F894D11106C09C91E12FE09544
:100B4000E923EC9303C0EC91E12BEC938FBFDF9191
:100B5000CF911F910895CF93DF93282F30E0F901B3
:100B6000E95DFF4F8491F901E55CFF4FD491F901F4
:100B7000E15BFF4FC491CC2389F081116BDFEC2F37
:100B8000F0E0EE0FFF1FED59FF4FA591B491EC91EE
:100B9000ED2381E090E021F480E002C080E090E06D
:100BA000DF91CF9108952FEF260F6623C9F0E82F2C
:100BB000F92F8FEF9FEF31918327082E8295807F49
:100BC0008025092E982F82958F7008268695982764
:100BD0008927880F880F880F8025215060F7089596
:100BE0008FEF9FEF08958D3039F0E9EFF0E091E05D
:100BF0002191281304C001C090E0892F08959F5FC0
:100C00009031B1F780E008958093620008950F93CA
:100C10001F93CF938091EA01882329F09091E701F7
:100C20009F5F9093E7019091E901891769F0909196
:100C3000E801903510F02DE101C02BE0920F909368
:100C4000E8018093E90105C08091E8018C5E809302
:100C5000E8018091E801803A08F47CC02091E2012B
:100C60003091E301369527953093E3012093E2011B
:100C70009091E701953028F038603093E30120939C
:100C8000E201805A8093E8011092E7018091E60129
:100C9000882309F44FC08091E1018F5F8093E101C7
:100CA0008C3008F457C00091E2011091E301802FCD
:100CB0008F7399DFC82FC8010024880F991F001C6B
:100CC000880F991F001C892F902D8DDF90E1C99FFF
:100CD00090011124822B9091C10191110EC080933B
:100CE000C2019CEF980F9B3140F01092E601809179
:100CF000C0018F5F8093C0012DC0E091C10191E0E0
:100D00009E0F9093C101F0E0ED53FE4F80839091D0
:100D1000C1018091C201981750F01092E6018091B4
:100D2000BF018F5F8093BF0181E08093E501109246
:100D3000E10110C08091E2019091E30188339B4072
:100D400049F481E08093E6011092E1011092C10123
:100D50001092E501CF911F910F9108954F925F92EC
:100D60006F927F928F929F92AF92BF92EF92FF927B
:100D70001F93CF93DF93CDB7DEB72E970FB6F894BE
:100D8000DEBF0FBECDBF2EE0E8EAF0E0DE01119637
:100D900001900D922A95E1F7009709F470C0BC010B
:100DA00080E090E0D2D19B01AC0160E070E080E88F
:100DB0009FE332D120E030E040E05EE354D24B01CB
:100DC0005C017E0123E0E20EF11C11E0F70181914C
:100DD00091917F01BC0180E090E0B7D19B01AC0113
:100DE00060E074E284E79BE417D19B01AC0160E012
:100DF00070E080E89FE310D19B01AC01C501B40114
:100E00000BD172D12B013C01F2E04F1A510861085D
:100E100071082DEF42162FEF52066104710468F13C
:100E20001F5F173099F6623071058105910538F121
:100E300061157105E1E08E07910508F51123F9F0C0
:100E40001FBC28E02EBD2EB5122B1EBD7BBD6ABD7A
:100E500089B7806189BF61E0809161000DDE60E04B
:100E60008091620009DE61E08091630005DE60919F
:100E7000EB01809163003FDE02C01630C9F62E966A
:100E80000FB6F894DEBF0FBECDBFDF91CF911F919B
:100E9000FF90EF90BF90AF909F908F907F906F905A
:100EA0005F904F9008956091EB018091630023DE85
:100EB00060E0809161001FDE1092EE010895809144
:100EC000E401811105C081E08093E4011092E60104
:100ED00008958091E5018823E1F308952091E501CB
:100EE0002223D1F02091C1012350FB01308123172F
:100EF00008F42083FB01408150E064EC71E03ED2B5
:100F00001092E5016091C10183EC91E04CDE21E09B
:100F1000883B904F09F020E0822F08951F920F9296
:100F20000FB60F9211242F933F934F935F936F93BC
:100F30007F938F939F93AF93BF93EF93FF93809192
:100F4000E401882329F08091EE01882309F44CC044
:100F50008091EE018823C9F18091EF0191E0980F13
:100F60009093EF01811131C0E091F1018091F20184
:100F7000E81758F098DF8091EC019091ED0101960F
:100F80009093ED018093EC0120C0F0E0EC59FF4F0D
:100F900090818091F00121E0280F2093F00161E021
:100FA00070E002C0660F771F8A95E2F7692380918F
:100FB0006100A1DD8091F001863038F01092F001DF
:100FC0008091F1018F5F8093F1018091EF01883072
:100FD00010F01092EF018091E401882361F080917C
:100FE000EE01882339F007C080916200B4DD809360
:100FF000EA01AECF0CDEFF91EF91BF91AF919F91CF
:101000008F917F916F915F914F913F912F910F90B1
:101010000FBE0F901F9018950CD0EBC0E3D040F09E
:10102000DAD030F021F45F3F19F0CCC0511115C176
:10103000CFC0F0D098F39923C9F35523B1F3951B92
:10104000550BBB27AA2762177307840738F09F5FE9
:101050005F4F220F331F441FAA1FA9F333D00E2E58
:101060003AF0E0E830D091505040E695001CCAF7C5
:1010700029D0FE2F27D0660F771F881FBB1F26178A
:1010800037074807AB07B0E809F0BB0B802DBF015D
:10109000FF2793585F4F2AF09E3F510568F092C09A
:1010A000DCC05F3FECF3983EDCF38695779567955F
:1010B000B795F7959F5FC9F7880F911D969587950E
:1010C00097F90895E1E0660F771F881FBB1F62172D
:1010D00073078407BA0720F0621B730B840BBA0BEB
:1010E000EE1F88F7E095089504D06894B111B5C05B
:1010F000089598D088F09F5790F0B92F9927B7514D
:10110000A0F0D1F0660F771F881F991F1AF0BA95CB
:10111000C9F712C0B13081F09FD0B1E008959CC0F2
:10112000672F782F8827B85F39F0B93FCCF38695C1
:1011300077956795B395D9F73EF49095809570951E
:1011400061957F4F8F4F9F4F0895E89409C097FB9B
:101150003EF490958095709561957F4F8F4F9F4F8E
:101160009923A9F0F92F96E9BB279395F6958795D2
:1011700077956795B795F111F8CFFAF4BB0F11F495
:1011800060FF1BC06F5F7F4F8F4F9F4F16C088233C
:1011900011F096E911C0772321F09EE8872F762F72
:1011A00005C0662371F096E8862F70E060E02AF0B3
:1011B0009A95660F771F881FDAF7880F969587959F
:1011C00097F9089597F99F6780E870E060E00895C7
:1011D0009FEF80EC089500240A941616170618064F
:1011E0000906089500240A9412161306140605062B
:1011F0000895092E0394000C11F4882352F0BB0FBC
:1012000040F4BF2B11F460FF04C06F5F7F4F8F4F1E
:101210009F4F089557FD9058440F551F59F05F3F59
:1012200071F04795880F97FB991F61F09F3F79F008
:1012300087950895121613061406551FF2CF46958A
:10124000F1DF08C0161617061806991FF1CF86950C
:101250007105610508940895E894BB2766277727F0
:10126000CB0197F908950BD0C4CFB5DF28F0BADFD2
:1012700018F0952309F0A6CFABCF1124EECFCADF2B
:10128000A0F3959FD1F3950F50E0551F629FF00199
:10129000729FBB27F00DB11D639FAA27F00DB11DF2
:1012A000AA1F649F6627B00DA11D661F829F22277B
:1012B000B00DA11D621F739FB00DA11D621F839F02
:1012C000A00D611D221F749F3327A00D611D231FD8
:1012D000849F600D211D822F762F6A2F11249F5726
:1012E00050408AF0E1F088234AF0EE0FFF1FBB1F49
:1012F000661F771F881F91505040A9F79E3F5105E8
:1013000070F060CFAACF5F3FECF3983EDCF3869598
:1013100077956795B795F795E7959F5FC1F7FE2B92
:10132000880F911D9695879597F90895A1E21A2E39
:10133000AA1BBB1BFD010DC0AA1FBB1FEE1FFF1F79
:10134000A217B307E407F50720F0A21BB30BE40BC9
:10135000F50B661F771F881F991F1A9469F7609510
:101360007095809590959B01AC01BD01CF010895CA
:10137000EE0FFF1F0590F491E02D0994FB01DC01B5
:1013800002C001900D9241505040D8F70895FB01E2
:10139000DC018D91019080190110D9F3990B08950A
:0413A000F894FFCFEF
:1013A400FF0C0B0A2A2A2A2A2A2A382C00000000B9
:1013B4000000000000000000000000000000000029
:1013C4000000000000000000000000000000000019
:1013D4000000000000000000000000000000000009
:1013E40000000000000000000000010008004000B0
:1013F40000010004050D48690031323334353637B5
:101404000030303030303031003030303030303037
:1014140000000000005401F102CF00E900DB0033BA
:1014240001000000009C020D0A006E616E00696EEE
:1014340066006F7666002E000D0E131516191A1C21
:08144400232526292A2C32344D
:00000001FF
