:1000000042C0EDC619C756C663C062C0A9C260C06F
:100010005FC03FC75DC080C4B7C45AC059C058C094
:1000200057C056C055C0020000000000000000008C
:100030000304060000000000000000010204081094
:10004000204080010204081020010204081020044E
:10005000040404040404040202020202020303036F
:1000600003030300000000360033003000000000EE
:100070000038003500320000000000370034003145
:100080000000F2045C0511241FBECFE5D4E0DEBF02
:10009000CDBF10E0A0E6B0E0E6EFF3E102C00590CE
:1000A0000D92A43FB107D9F721E0A4EFB0E001C061
:1000B0001D92A13EB207E1F710E0C3E4D0E003C017
:1000C0002197FE0190D9C134D107D1F701D591C94B
:1000D00097CF8D3039F0E7EBF0E091E021912813D4
:1000E00004C001C090E0892F08959F5F9031B1F75F
:1000F00080E008958093600008950F931F93CF933D
:1001000080911F01882329F090911C019F5F90939B
:100110001C0190911E01891769F090911D01903585
:1001200010F02DE101C02BE0920F90931D01809300
:100130001E0105C080911D018C5E80931D01809180
:100140001D01803A08F47CC02091170130911801FC
:1001500036952795309318012093170190911C0133
:10016000953028F038603093180120931701805A99
:1001700080931D0110921C0180911B01882309F4BA
:100180004FC0809116018F5F809316018C3008F468
:1001900057C00091170110911801802F8F7399DFBC
:1001A000C82FC8010024880F991F001C880F991FB1
:1001B000001C892F902D8DDF90E1C99F90011124A3
:1001C000822B9091F60091110EC08093F7009CEF66
:1001D000980F9B3140F010921B018091F5008F5FCA
:1001E0008093F5002DC0E091F60091E09E0F909372
:1001F000F600F0E0E850FF4F80839091F600809188
:10020000F700981750F010921B018091F4008F5F57
:100210008093F40081E080931A011092160110C0BF
:10022000809117019091180188339B4049F481E037
:1002300080931B01109216011092F60010921A0181
:10024000CF911F910F9108954F925F926F927F927D
:100250008F929F92AF92BF92EF92FF921F93CF9394
:10026000DF93CDB7DEB72E970FB6F894DEBF0FBE83
:10027000CDBF2EE0E8EAF0E0DE01119601900D928C
:100280002A95E1F7009709F470C0BC0180E090E086
:1002900097D79B01AC0160E070E080E89FE3F7D660
:1002A00020E030E040E05EE319D84B015C017E01C4
:1002B00023E0E20EF11C11E0F701819191917F01A1
:1002C000BC0180E090E07CD79B01AC0160E074E26F
:1002D00084E79BE4DCD69B01AC0160E070E080E841
:1002E0009FE3D5D69B01AC01C501B401D0D637D769
:1002F0002B013C01F2E04F1A5108610871082DEF03
:1003000042162FEF52066104710468F11F5F173027
:1003100099F6623071058105910538F16115710515
:10032000E1E08E07910508F51123F9F01FBC28E0E4
:100330002EBD2EB5122B1EBD7BBD6ABD89B7806157
:1003400089BF61E0809160000BD660E08091610020
:1003500007D661E08091620003D660912001809110
:1003600062003DD602C01630C9F62E960FB6F8943C
:10037000DEBF0FBECDBFDF91CF911F91FF90EF90F9
:10038000BF90AF909F908F907F906F905F904F90B5
:100390000895CF9310922601109225011092240106
:1003A00060912001C1E06C278091620018D6C09353
:1003B0002301CF91089560912001809162000FD6B2
:1003C00060E0809160000BD6109223010895809127
:1003D00023018111FCCF0895EF92FF921F93CF93D9
:1003E000DF936C3108F0B5C0162F7C01C3E0C60F57
:1003F000EEDF2FEF3FEF2C27022E2295207F2025C6
:10040000032E322F22952F7002262695322723277E
:10041000220F220F220F2025A3E6B0E0EC2FF0E000
:10042000F595E795F595E795F595E795F595E795B4
:10043000EA54FF4F808118968C931897CF70EC2F59
:10044000F0E0EA54FF4F808119968C93112309F450
:100450003EC0E701AEE6B0E08FEF810F90E001967D
:100460008E0D9F1DAE01E9912E27022E2295207F31
:100470002025032E322F22952F7002262695322713
:100480002327220F220F220F2025BD016150710961
:10049000F0E0F595E795F595E795F595E795F595F0
:1004A000E795EA54FF4FF080FB01F082FA014081AA
:1004B000E42FEF70F0E0EA54FF4F40814C93129626
:1004C000C817D90709F0CECF1F5F110F01C012E086
:1004D000F901E095F095C12FD0E0C559DF4FDF015C
:1004E000B295A295AF70AB27BF70AB27AF70BB279B
:1004F000AA54BF4F8C918883A1E0A10FB0E0A55909
:10050000BF4FEF01CF70DD27CA54DF4F88818C9336
:10051000A2E0A10FB0E0A559BF4FEF01CD2FDD271D
:10052000C295CF70CA54DF4F88818C93A3E0A10F8E
:10053000B0E0A559BF4FEF2FFF27EF70FF27EA5418
:10054000FF4F80818C93145F1093270122DF81E09D
:1005500001C080E0DF91CF911F91FF90EF9008954F
:100560001F920F920FB60F9211242F933F934F9328
:100570005F936F937F938F939F93AF93BF93EF930B
:10058000FF9380911901882329F08091230188230A
:1005900009F44CC0809123018823C9F18091240182
:1005A00091E0980F90932401811131C0E0912601D0
:1005B00080912701E81758F0FEDE8091210190918B
:1005C00022010196909322018093210120C0F0E046
:1005D000ED59FF4F90818091250121E0280F209354
:1005E000250161E070E002C0660F771F8A95E2F78F
:1005F000692380916000F3D480912501863038F022
:1006000010922501809126018F5F809326018091B1
:100610002401883010F01092240180911901882360
:1006200061F080912301882339F007C08091610037
:1006300006D580931F01AECF60DDFF91EF91BF9192
:10064000AF919F918F917F916F915F914F913F916A
:100650002F910F900FBE0F901F90189580E0A8D398
:1006600082E0EDD4892B41F483E0E9D4892B51F069
:1006700081E080932901089540E050E06EE273E04C
:1006800080E073D3089581E093D383E0D8D4892B9D
:1006900021F481E080932801089540E050E063E474
:1006A00073E081E062D308951092290167E086EC3F
:1006B00090E092DE8CDE67E08EEC90E08DDE87DEEF
:1006C00040E050E063E473E081E04FD3089510927E
:1006D000280167E086EC90E07FDE79DE67E086ED5A
:1006E00090E07ADE74DE82E0AAD4892B31F040E01B
:1006F00050E06EE273E080E038D3089517BA14BA80
:1007000011BA8FEE88BB8FEF85BB82BB479A85B746
:100710008F78806285BF8CE0EDDC88E293E294DD27
:10072000D6DF82E08CD4892B41F483E088D4892BF6
:1007300021F081E080932901089540E050E06EE2CD
:1007400073E080E012D3089580912901882311F08D
:10075000ABDF04C0809128018111B9DF85B78068C3
:1007600085BF85B7806885BF889585B78F7785BF3A
:100770000895FC01918D228D892F90E0805C9F4F20
:10078000821B91098F7399270895FC01918D828DA9
:10079000981731F0828DE80FF11D858D90E0089556
:1007A0008FEF9FEF0895FC01918D828D981761F076
:1007B000828DDF01A80FB11D5D968C91928D9F5F98
:1007C0009F73928F90E008958FEF9FEF089589EEC9
:1007D00094E0892B39F080E090E0892B19F0F9D072
:1007E00081110EDC0895FC01848DDF01A80FB11D7D
:1007F000A35ABF4F8C91248D30E02F5F3F4F2F7352
:100800003078332334F421503109206C3F6F2F5F4F
:100810003F4F248FA689B7898C93A089B1898C9189
:1008200080648C93938D848D981306C00288F3891D
:10083000E02D80818F7D80830895CF93DF93EC013D
:10084000888D81110EC017C00FB607FC0CC09081B7
:1008500095FF09C0A889B9898C9185FF04C0CE0194
:10086000C2DFEA89FB89908195FDEECFA889B9891D
:100870008C9186FFE9CFDF91CF9108950F931F935D
:10088000CF93DF93FC0181E0808F938D848D98134B
:1008900021C0A089B1898C9185FD2EC01BC00FB6E7
:1008A00007FC07C0E889F989808185FF02C0CE0175
:1008B0009ADF9C8D091799F38B8DFE01E80FF11DCE
:1008C000E35AFF4F10830B8FEA89FB898081806296
:1008D00080831BC0238D30E02F5F3F4F2F73307814
:1008E000332334F421503109206C3F6F2F5F3F4F89
:1008F000162FEF01022FDDCFA689B7896C930088F0
:10090000F189E02D80818064808381E090E0DF9137
:10091000CF911F910F9108951F920F920FB60F92D2
:1009200011242F938F939F93AF93BF93EF93FF93D4
:10093000E0913A01F0913B01808182FD14C0EAE22E
:10094000F1E0A689B7892C91818D8F5F8F73928D8D
:10095000891771F0DF01E18DF0E0E65DFE4F258F34
:1009600059968C9305C0E0914001F091410180813E
:10097000FF91EF91BF91AF919F918F912F910F9028
:100980000FBE0F901F9018951F920F920FB60F92E7
:1009900011242F933F934F935F936F937F938F9384
:1009A0009F93AF93BF93EF93FF938AE291E01BDF96
:1009B000FF91EF91BF91AF919F918F917F916F9137
:1009C0005F914F913F912F910F900FBE0F901F900D
:1009D00018958AE291E0CDDE21E0892B09F420E030
:1009E000822F0895EAE2F1E01382128288EE93E00A
:1009F000A0E0B0E084839583A683B78382EE90E085
:100A00009183808380E490E09587848729E230E0B9
:100A1000378726872BE230E0318B208B2AE230E0CB
:100A2000338B228B958B848B8CE290E0978B868B1B
:100A3000118E128E138E148E08958F929F92AF9204
:100A4000BF92CF92DF92EF92FF920F931F93CF93BB
:100A5000DF935C017B014C0182E0880E911C6501F3
:100A6000E5E0CE0ED11C00E010E0F40161914F01F1
:100A70004AE050E0C701EBD0EC016EE2C7015FD065
:100A80008C0F9D1F080F191F8C149D0471F74AE0ED
:100A900050E0F5016581C701DAD0800F911FDF9129
:100AA000CF911F910F91FF90EF90DF90CF90BF906B
:100AB000AF909F908F900895E7ECF1E082EF90E087
:100AC000918380831282138214821582089508957F
:100AD0002AD2FDDF13DEC7EED3E036DE2097E9F33E
:100AE00076DEFBCFCF92DF92EF92FF920F931F93B0
:100AF000CF93DF9341155105B1F08C01E62EF72E0F
:100B0000EA01C12CD12CD7016D917D01D801ED9165
:100B1000FC910190F081E02DC8010995C80ED91E05
:100B2000219789F702C0C12CD12CC601DF91CF914A
:100B30001F910F91FF90EF90DF90CF900895DC010F
:100B4000ED91FC910190F081E02D099508954F926F
:100B50005F926F927F929F92AF92BF92CF92DF92FD
:100B6000EF92FF920F931F93CF93DF93CDB7DEB732
:100B7000A1970FB6F894DEBF0FBECDBF5C016A012E
:100B80007B01922E19A281E0821720F00F2EFAE04D
:100B90009F2EF02D8E010F5D1F4F492C512C612C83
:100BA000712CC701B601A3019201FBD38C2D929E3B
:100BB00080191124015011098A3010F4805D01C0A0
:100BC000895CD8018C93C22ED32EE42EF52EC1144D
:100BD000D104E104F10429F70115110591F0F801A0
:100BE00001900020E9F73197AF01401B510BD5016F
:100BF000ED91FC910280F381E02DB801C5010995CA
:100C000002C080E090E0A1960FB6F894DEBF0FBE60
:100C1000CDBFDF91CF911F910F91FF90EF90DF90AB
:100C2000CF90BF90AF909F907F906F905F904F90CC
:100C300008952115310549F4DC01ED91FC910190F5
:100C4000F081E02D642F0995089581DF08959A01C0
:100C5000462F50E060E070E0ECDF0895813031F025
:100C600018F0823039F0089519BE089589B78F7E43
:100C700089BF089589B78F7789BF80E485BD85B521
:100C8000887F846085BD13BC0895CF93C82F809161
:100C9000A7008C1308C0E6E2F0E0E4918E2F9FEFEE
:100CA0009093A70001C08FEFD9DF60E08C2F97D120
:100CB000CF9108951F920F920FB60F9211242F9388
:100CC0003F934F935F936F937F938F939F93AF93D4
:100CD000BF93EF93FF938091D0019091D101A091A8
:100CE000D201B091D301892B8A2B8B2B51F18091AA
:100CF000CD01E091CE01F091CF01908189278083D1
:100D00008091D0019091D101A091D201B091D301F5
:100D1000181619061A061B06BCF48091D001909192
:100D2000D101A091D201B091D3010197A109B109DC
:100D30008093D0019093D101A093D201B093D301BD
:100D400003C08091A700A1DFFF91EF91BF91AF9108
:100D50009F918F917F916F915F914F913F912F91D3
:100D60000F900FBE0F901F901895823000F5E82F5E
:100D7000F0E0EE0FFF1FEC52FE4F7183608388237B
:100D800019F0813049F0089585B78C7F482B45BF15
:100D90008BB780648BBF089585B7440F551F440FF0
:100DA000551F837F482B45BF8BB780688BBF089545
:100DB0008230A0F4882319F0813029F007C09BB756
:100DC0009F7B9BBF03C09BB79F779BBFE82FF0E043
:100DD000EE0FFF1FEC52FE4F1182108208951F92FA
:100DE0000F920FB60F9211242F933F934F935F935F
:100DF0006F937F938F939F93AF93BF93EF93FF93E3
:100E00008091D4019091D501892B29F0E091D401F2
:100E1000F091D5010995FF91EF91BF91AF919F910D
:100E20008F917F916F915F914F913F912F910F9093
:100E30000FBE0F901F9018951F920F920FB60F9232
:100E400011242F933F934F935F936F937F938F93CF
:100E50009F93AF93BF93EF93FF938091D6019091AF
:100E6000D701892B29F0E091D601F091D70109959E
:100E7000FF91EF91BF91AF919F918F917F916F9172
:100E80005F914F913F912F910F900FBE0F901F9048
:100E900018951F920F920FB60F9211242F933F9324
:100EA0008F939F93AF93BF938091D9019091DA0173
:100EB000A091DB01B091DC013091D80123E0230F38
:100EC0002D3720F40196A11DB11D05C026E8230F82
:100ED0000296A11DB11D2093D8018093D901909352
:100EE000DA01A093DB01B093DC018091DD019091E8
:100EF000DE01A091DF01B091E0010196A11DB11DBD
:100F00008093DD019093DE01A093DF01B093E001B7
:100F1000BF91AF919F918F913F912F910F900FBEF5
:100F20000F901F901895789483B7826083BF83B722
:100F3000816083BF89B7816089BF0895843041F0A3
:100F4000863051F0833059F48FB58F778FBD089577
:100F50008FB58F7D8FBD089585B58F7D85BD089533
:100F6000CF93DF9390E0FC01E55CFF4F2491FC01FF
:100F7000E15BFF4F8491882379F190E0880F991FFE
:100F8000FC01E958FF4FA591B491FC01E359FF4FD3
:100F9000C591D49161110CC09FB7F8948C91E22F48
:100FA000E0958E238C932881E223E8839FBF14C0B1
:100FB000623061F49FB7F8943C91822F809583232F
:100FC0008C93E881E22BE8839FBF06C08FB7F8942B
:100FD000EC91E22BEC938FBFDF91CF9108951F939B
:100FE000CF93DF93282F30E0F901E95DFF4F849123
:100FF000F901E55CFF4F1491F901E15BFF4FC491EA
:10100000CC23C9F0D62F811199DFEC2FF0E0EE0F41
:10101000FF1FE359FF4FA591B4918FB7F894D111F9
:1010200006C09C91E12FE095E923EC9303C0EC917D
:10103000E12BEC938FBFDF91CF911F910895CF9358
:10104000DF93282F30E0F901E95DFF4F8491F9012A
:10105000E55CFF4FD491F901E15BFF4FC491CC23D4
:1010600089F081116BDFEC2FF0E0EE0FFF1FED59DF
:10107000FF4FA591B491EC91ED2381E090E021F434
:1010800080E002C080E090E0DF91CF9108950CD025
:10109000EBC0E3D040F0DAD030F021F45F3F19F03C
:1010A000CCC0511115C1CFC0F0D098F39923C9F32A
:1010B0005523B1F3951B550BBB27AA27621773075E
:1010C000840738F09F5F5F4F220F331F441FAA1F12
:1010D000A9F333D00E2E3AF0E0E830D091505040D2
:1010E000E695001CCAF729D0FE2F27D0660F771F80
:1010F000881FBB1F261737074807AB07B0E809F062
:10110000BB0B802DBF01FF2793585F4F2AF09E3FF6
:10111000510568F092C0DCC05F3FECF3983EDCF311
:10112000869577956795B795F7959F5FC9F7880F6F
:10113000911D9695879597F90895E1E0660F771FC1
:10114000881FBB1F621773078407BA0720F0621B52
:10115000730B840BBA0BEE1F88F7E095089504D04B
:101160006894B111B5C0089598D088F09F5790F059
:10117000B92F9927B751A0F0D1F0660F771F881FBC
:10118000991F1AF0BA95C9F712C0B13081F09FD0FB
:10119000B1E008959CC0672F782F8827B85F39F099
:1011A000B93FCCF3869577956795B395D9F73EF41B
:1011B00090958095709561957F4F8F4F9F4F0895C3
:1011C000E89409C097FB3EF49095809570956195E1
:1011D0007F4F8F4F9F4F9923A9F0F92F96E9BB2797
:1011E0009395F695879577956795B795F111F8CF13
:1011F000FAF4BB0F11F460FF1BC06F5F7F4F8F4F7E
:101200009F4F16C0882311F096E911C0772321F073
:101210009EE8872F762F05C0662371F096E8862F0B
:1012200070E060E02AF09A95660F771F881FDAF762
:10123000880F9695879597F9089597F99F6780E8A5
:1012400070E060E008959FEF80EC089500240A9418
:101250001616170618060906089500240A94121691
:101260001306140605060895092E0394000C11F4C4
:10127000882352F0BB0F40F4BF2B11F460FF04C071
:101280006F5F7F4F8F4F9F4F089557FD9058440FCA
:10129000551F59F05F3F71F04795880F97FB991FD5
:1012A00061F09F3F79F08795089512161306140692
:1012B000551FF2CF4695F1DF08C01616170618061F
:1012C000991FF1CF86957105610508940895E894FA
:1012D000BB2766277727CB0197F908950BD0C4CF9A
:1012E000B5DF28F0BADF18F0952309F0A6CFABCF11
:1012F0001124EECFCADFA0F3959FD1F3950F50E0F4
:10130000551F629FF001729FBB27F00DB11D639FB7
:10131000AA27F00DB11DAA1F649F6627B00DA11D5D
:10132000661F829F2227B00DA11D621F739FB00D03
:10133000A11D621F839FA00D611D221F749F332773
:10134000A00D611D231F849F600D211D822F762F0C
:101350006A2F11249F5750408AF0E1F088234AF009
:10136000EE0FFF1FBB1F661F771F881F9150504055
:10137000A9F79E3F510570F060CFAACF5F3FECF315
:10138000983EDCF3869577956795B795F795E79541
:101390009F5FC1F7FE2B880F911D9695879597F952
:1013A0000895A1E21A2EAA1BBB1BFD010DC0AA1FA6
:1013B000BB1FEE1FFF1FA217B307E407F50720F0BE
:1013C000A21BB30BE40BF50B661F771F881F991F39
:1013D0001A9469F760957095809590959B01AC0182
:1013E000BD01CF010895EE0FFF1F0590F491E02D90
:0613F0000994F894FFCF00
:1013F6000C0B0A2A2A2A2A2A2A382C000000000066
:1014060000000000000000000000000000000000D6
:1014160000000000000000000000000000000000C6
:1014260000000000000000000000000000000000B6
:1014360000000000000000FF00000100080040005E
:1014460000010004050D0D0E131516191A1C23258F
:1014560026292A2C323431323334353637003030AF
:101466003030303031003030303030303000000035
:1014760000003E047205B903D303C5031D04000032
:0414860000001D0540
:00000001FF
